:100000000C9462000C948A000C948A000C948A0070
:100010000C948A000C948A000C948A000C948A0038
:100020000C948A000C948A000C948A000C948A0028
:100030000C948A000C948A000C948A000C948A0018
:100040000C945E010C948A000C94A6020C948A0015
:100050000C948A000C948A000C948A000C948A00F8
:100060000C948A000C948A000000000024002700F1
:100070002A0000000000250028002B0000000000DE
:1000800023002600290004040404040404040202DA
:100090000202020203030303030301020408102007
:1000A0004080010204081020010204081020000012
:1000B0000007000201000003040600000000000029
:1000C00000002B0411241FBECFEFD8E0DEBFCDBF50
:1000D00011E0A0E0B1E0E2EAFAE002C005900D9282
:1000E000AA30B107D9F711E0AAE0B1E001C01D9232
:1000F000AA3BB107E1F710E0C4ECD0E004C02297BE
:10010000FE010E944B05C23CD107C9F70E9457016E
:100110000C944F050C940000FC0188279927E89463
:1001200021912032E9F3293010F02E30C8F32B3220
:1001300041F02D3239F4689404C00E94AA00820F65
:10014000911D219120532A30C0F31EF49095819582
:100150009F4F08957AE0979F902D879F802D910D56
:10016000112408950F931F93CF93DF938C01EB011C
:1001700087EA91E0B8010E94BB04C230D1050CF4BB
:1001800054C0229719F4C0E0D0E005C0C80102961F
:100190000E948C00EC01F80160817181F6E4663404
:1001A0007F0721F186E46734780744F4E6E461349C
:1001B0007E0781F062547644C1F520C082E5623446
:1001C000780759F1E2E562357E07F9F0615472452E
:1001D00061F506C08AE0BE010E94E0018CE022C009
:1001E0008AE0BE010E94E0018CE00DC08AE0BE0101
:1001F0000E94E0018CE061E00E9459028BE0BE01A8
:100200000E94E0018DE060E00EC08AE0BE010E9425
:10021000E0018CE060E00E9459028BE0BE010E9488
:10022000E0018DE061E00E945902DF91CF911F91C2
:100230000F910895CF93DF93C0E0D0E087EA91E07B
:100240000E94DC038823D1F387EA91E00E94F00347
:10025000FE01E65FFE4F8083833221F02196C0319C
:10026000D10561F7FE01E65FFE4F10828AE091E062
:10027000BE010E94B200DF91CF9108958AE061E053
:100280000E9439028BE061E00E9439028CE061E05B
:100290000E9439028DE061E00E94390287EA91E014
:1002A00040E855E260E070E00E94E30208950E9499
:1002B000A6010E943E010E941A01FDCF1F920F92DB
:1002C0000FB60F9211242F933F938F939F93AF9369
:1002D000BF9380911E0190911F01A0912001B091C8
:1002E0002101309122010196A11DB11D232F2D5F07
:1002F0002D3720F02D570196A11DB11D209322010D
:1003000080931E0190931F01A0932001B0932101BF
:1003100080911A0190911B01A0911C01B0911D01C7
:100320000196A11DB11D80931A0190931B01A0930A
:100330001C01B0931D01BF91AF919F918F913F918F
:100340002F910F900FBE0F901F901895789484B541
:10035000826084BD84B5816084BD85B5826085BDC1
:1003600085B5816085BDEEE6F0E0808181608083A7
:10037000E1E8F0E080818260808380818160808319
:10038000E0E8F0E0808181608083E1EBF0E0808153
:1003900084608083E0EBF0E0808181608083EAE725
:1003A000F0E08081846080838081826080838081AE
:1003B000816080838081806880831092C10008956D
:1003C0001F93CF93DF93182FEB0161E00E94390256
:1003D000E12FF0E0E255FF4F8491833051F480919A
:1003E0008000806880938000D0938900C09388004B
:1003F0003CC0843051F48091800080628093800002
:10040000D0938B00C0938A0030C0813039F420979C
:1004100029F184B5806884BDC7BD27C0823039F416
:100420002097E1F084B5806284BDC8BD1EC08630CF
:1004300041F48091B00080688093B000C093B30015
:1004400014C0873041F48091B00080628093B00086
:10045000C093B4000AC0C038D1051CF4812F60E0FD
:1004600002C0812F61E00E945902DF91CF911F915C
:100470000895282F30E0C90186569F4FFC019491C2
:100480002A573F4FF9018491882391F0E82FF0E03B
:10049000EE0FFF1FE859FF4FA591B491662329F491
:1004A0008C91909589238C9308958C91892B8C93B2
:1004B0000895482F50E0CA0182559F4FFC012491B6
:1004C000CA0186569F4FFC0194914A575F4FFA012B
:1004D00034913323D1F1222331F1233021F480915F
:1004E00080008F7705C0243031F4809180008F7DAB
:1004F0008093800018C0213019F484B58F7704C030
:10050000223021F484B58F7D84BD0DC0263021F4C6
:100510008091B0008F7705C0273029F48091B0001A
:100520008F7D8093B000E32FF0E0EE0FFF1FEE58B9
:10053000FF4FA591B491662329F48C91909589235E
:100540008C9308958C91892B8C9308951F920F9210
:100550000FB60F9211242F933F934F935F936F9396
:100560007F938F939F93AF93BF93EF93FF934091AC
:10057000C600E091A301F091A401CF01019660E8CB
:1005800070E00E94E5049C018091A5019091A60174
:100590002817390739F0ED5DFE4F40833093A401F1
:1005A0002093A301FF91EF91BF91AF919F918F9104
:1005B0007F916F915F914F913F912F910F900FBE5F
:1005C0000F901F9018955F926F927F928F929F92DB
:1005D000AF92BF92CF92DF92EF92FF920F931F9351
:1005E000CF93DF93EC013A014B01413482E4580789
:1005F0008FE0680780E078070CF07FC060E874E85F
:100600008EE190E0A40193010E941A052150304030
:1006100040405040CA01B90122E030E040E050E0E3
:100620000E941A0559016A01A6019501209530958D
:100630004095509594E0220F331F441F551F9A9503
:10064000D1F760E074E284EF90E00E941A05CA01DD
:10065000B9012FEF30E040E050E00E94C604A40151
:1006600093010E941A05C90181509F4F181619065F
:100670001CF4522E5A9403C055245394521A60E02D
:1006800079E08DE390E0A40193010E941A052150C6
:10069000304040405040CA01B90122E030E040E023
:1006A00050E00E941A05209530954095509583E0C2
:1006B000220F331F441F551F8A95D1F760E074E263
:1006C00084EF90E00E941A05CA01B9012FEF30E0D3
:1006D00040E050E00E94C604A40193010E941A0564
:1006E000C90181509F4F181619061CF4822F8150A2
:1006F00002C081E0821B851500F5E885F98581E05F
:1007000090E00A8802C0880F991F0A94E2F780835C
:1007100060E079E08DE390E0A40193010E941A0566
:100720002150304040405040CA01B90122E030E041
:1007300040E050E00E941A0504C0E885F985108267
:100740009501EC81FD813083EE81FF812083EA8574
:10075000FB85208141E050E0CA010E8402C0880F71
:10076000991F0A94E2F7282B2083EA85FB852081D4
:10077000CA010F8402C0880F991F0A94E2F7282B40
:100780002083EA85FB858081088802C0440F551FBD
:100790000A94E2F7842B8083DF91CF911F910F9110
:1007A000FF90EF90DF90CF90BF90AF909F908F9091
:1007B0007F906F905F900895DC011296ED91FC910F
:1007C0001397E058FF4F8191919180589F4F20815E
:1007D0003181821B930B60E870E00E94E50408956C
:1007E000CF93DF93DC011296ED91FC911397EF010B
:1007F000CE57DF4F48815981E058FF4F808191816A
:10080000E058F0408417950719F42FEF3FEF0CC024
:10081000E40FF51F2081CA01019660E870E00E9494
:10082000E5049983888330E0C901DF91CF91089571
:10083000FC01A085B18521898C9190E0022E02C037
:10084000959587950A94E2F780FFF6CF0484F585A5
:10085000E02D6083089584E091E09093A801809357
:10086000A70183E291E09093AA018093A90185EC0E
:1008700090E09093AC018093AB0184EC90E0909376
:10088000AE018093AD0180EC90E09093B001809335
:10089000AF0181EC90E09093B2018093B10186ECBE
:1008A00090E09093B4018093B30184E08093B5010C
:1008B00083E08093B60187E08093B70185E0809361
:1008C000B80181E08093B90108950F931F93CF93EE
:1008D000DF938C01EB0109C02196D801ED91FC91C9
:1008E0000190F081E02DC801099568816623A1F788
:1008F000DF91CF911F910F910895EF92FF920F9387
:100900001F93CF93DF938C017B01EA010CC0D701C9
:100910006D917D01D801ED91FC910190F081E02D68
:10092000C80109952197209791F7DF91CF911F91E9
:100930000F91FF90EF900895DC01ED91FC91028002
:10094000F381E02D099508950F931F938C01DC012D
:10095000ED91FC910190F081E02D6DE00995D801B9
:10096000ED91FC910190F081E02DC8016AE00995BC
:100970001F910F9108950F931F938C010E949C0467
:10098000C8010E94A4041F910F910895629FD00195
:10099000739FF001829FE00DF11D649FE00DF11D3A
:1009A000929FF00D839FF00D749FF00D659FF00DE9
:1009B0009927729FB00DE11DF91F639FB00DE11DD6
:1009C000F91FBD01CF011124089597FB092E0726B9
:1009D0000AD077FD04D049D006D000201AF47095D3
:1009E00061957F4F0895F6F7909581959F4F0895F3
:1009F000A1E21A2EAA1BBB1BFD010DC0AA1FBB1F23
:100A0000EE1FFF1FA217B307E407F50720F0A21B94
:100A1000B30BE40BF50B661F771F881F991F1A9401
:100A200069F760957095809590959B01AC01BD012B
:100A3000CF01089597FB092E05260ED057FD04D04F
:100A4000D7DF0AD0001C38F4509540953095219599
:100A50003F4F4F4F5F4F0895F6F7909580957095F3
:100A600061957F4F8F4F9F4F0895AA1BBB1B51E18C
:100A700007C0AA1FBB1FA617B70710F0A61BB70B0E
:100A8000881F991F5A95A9F780959095BC01CD01B3
:100A90000895EE0FFF1F0590F491E02D0994F8944E
:020AA000FFCF86
:0A0AA20000000000180465047D0444
:00000001FF
